S11330004552524F522C204E554D45524F20524F4F
S11330104D414E4F20494E56414C49444F2E455246
S1133020524F522C204E554D45524F204152414251
S113303049474F20494E56414C49444F2E45525220
S11330404F522C204E554D45524F20465545524126
S11330502044452052414E474F2E432043432043B2
S113306043432043442044204443204443432044D6
S113307043434320434D2058205858205858582043
S1133080584C204C204C58204C5858204C585858D8
S1133090205843204920494920494949204956207C
S11330A056205649205649492056494949205849ED
S10430B020FB
S11380008E00FFBD80A9BD80C5863F970096008184
S11380103F27FA813D2732814F271A814B271EBD06
S113802080FAC10126E3D610C10322635CD710A7EE
S113803000087E8009D6235CD7237E809CD623C18A
S11380400027C6BD80C57E80099611810127BACE5E
S1138050007096108101273181022729810327218D
S1138060810427037E800918CE0050CE0070E600FC
S1138070C131250D864D18A70018085AC13026F4C1
S113808008BD814008BD81CB08BD82477E8009CEF2
S1138090005018CE301EBD812F7E8009863F970088
S11380A09600813F27FA7E8013CC302CB7102BF733
S11380B0102D8600B7102C86FEB710098604B71061
S11380C03C86000639CE007018CE00707F00237FF6
S11380D030947F00037F00107F0011860018A700F2
S11380E01808188C008F26F318CE0050860018A7A5
S11380F0001808188C006F26F33981302507813A5F
S11381002203C60139CE005018CE301EBD812F7E09
S11381108104814D26198144261581432611814C01
S1138120260D815826098156260581312601398676
S113813001971118E600E700081808C12E26F43943
S11381403CA6008030810127228102272781032752
S11381502C81042731810527368106273B81072797
S113816040810827458109274A3839CE305ABD81D4
S1138170BC7E8169CE305CBD81BC7E8169CE305FBE
S1138180BD81BC7E8169CE3063BD81BC7E8169CEF8
S11381903066BD81BC7E8169CE3068BD81BC7E8184
S11381A069CE306BBD81BC7E8169CE306FBD81BC30
S11381B07E8169CE3074BD81BC7E8169E60018E79A
S11381C000081808C12026F41809393CA60080309C
S11381D081012722810227278103272C810427314B
S11381E0810527368106273B8107274081082745DB
S11381F08109274A3839CE3077BD81BC7E81F4CEDF
S11382003079BD81BC7E81F4CE307CBD81BC7E8161
S1138210F4CE3080BD81BC7E81F4CE3083BD81BC80
S11382207E81F4CE3085BD81BC7E81F4CE3088BDA4
S113823081BC7E81F4CE308CBD81BC7E81F4CE3095
S113824091BD81BC7E81F43CA6008030810127224F
S1138250810227278103272C8104273181052736B2
S11382608106273B81072740810827458109274A42
S11382703839CE3094BD81BC7E8270CE3096BD81BB
S1138280BC7E8270CE3099BD81BC7E8270CE309D22
S1138290BD81BC7E8270CE30A0BD81BC7E8270CE9A
S11382A030A2BD81BC7E8270CE30A5BD81BC7E82F1
S11382B070CE30A9BD81BC7E8270CE30AEBD81BC93
S10682C07E827047
S10CF100B6102EB6102F97003B47
S105FFD6F10034
S105FFFE80007D
S9030000FC
