S11330004552524F522C204E554D45524F20524F4F
S11330104D414E4F20494E56414C49444F2E455246
S1133020524F522C204E554D45524F204445434952
S11330304D414C20494E56414C49444F2E45525225
S11330404F522C204E554D45524F20465545524126
S11330502044452052414E474F2E756E6F20206408
S11330606F7320747265732063756174726F20636B
S1133070696E636F20736569732073696574652075
S11330806F63686F206E7565766520646965636932
S1133090206469657A206F6E636520646F636520C0
S11330A07472656365206361746F7263652064691B
S11330B065636973456973207175696E636520760C
S11330C065696E7465207665696E7469756E6F20C6
S11330D07665696E7469644F73207665696E746988
S11330E074724573207665696E7469637561747270
S11330F06F207665696E746963696E636F207665A7
S1133100696E746973456973207665696E74697351
S113311069657465207665696E74696F63686F208C
S11331207665696E74696E7565766520792074724A
S113313065696E74612063756172656E7461206384
S1133140696E6375656E746120736573656E746111
S113315020736574656E7461206F6368656E746155
S1133160206E6F76656E7461206369656E20636995
S1133170656E746F206369656E746F732071756911
S11331806E69656E746F7320736574656369656ECB
S1133190746F73206E6F76656369656E746F7320E8
S11331A06D696C2043204343204343432043442020
S11331B04420444320444343204443434320434D59
S11331C020582058582058585820584C204C204CEF
S11331D058204C5858204C585858205843204920BF
S11331E049492049494920495620562056492056E4
S10E31F049492056494949204958200C
S11380008E00FFBD8466BD84D2BD828D7E81EF86E5
S11380103F97009600813F27FAD610C100260B81B6
S11380204D270D8144273A7E808FBD84827E81DA7C
S1138030D618C1002619D616C10822EEBD84A1A700
S11380400008D6165CD716D6505CD7507E800FC178
S11380500122D7CB05D718C609D751A700087E80BF
S11380600FBD84B1D6175CD717C10227BDA700087E
S1138070D618C1002607C605D7517E800FC101223C
S11380804ECB05D718C604D751A700087E800F81B0
S1138090432707814C273E7E8103D620C100261D3D
S11380A0D618C1042229BD84B1D6185CD718C104DE
S11380B0271DA70008D6515CD7517E800FC101222D
S11380C00ECB05D720C609D752A700087E800FBD66
S11380D084827E81DAD620C1002616BD84C1D619D9
S11380E05CD719C10227E8A70008C605D7527E80CD
S11380F00FC10122DACB05D720C604D752A7000846
S11381007E800F8158270B81562742814927787E2C
S11381108178BD84C1D622C1002620D6205CD72018
S1138120C10322ABD621C10026A5A70008D6525C04
S1138130D7527E800FBD84827E81DAC1012290CB2A
S113814006D722C609D753A700087E800FD622C1BE
S1138150002613D6215CD721C10227D9A70008C65F
S113816005D7537E800FC10122CBCB06D722C6048C
S1138170D753A700087E800F814F271F814B2723E9
S1138180813D27347E81B5D6225CD722C10322A546
S1138190A70008D6535CD7537E800FD6235CD72321
S11381A07E81DAD623C10026037E81EFBD84D2BD51
S11381B0828D7E81EF7E802AD602C10127F7C630E8
S11381C096501B975096511B975196521B97529657
S11381D0531B97537E853F7E81DA863F9700960036
S11381E0813F27FA814F27B3814B27B77E81DA86F7
S11381F03F97009600813F27FA813D2739814F2719
S113820021814B2725BD82C2C101260FD610C1038F
S1138210226E5CD710A700087E81EFC602D7247EA9
S11382208019D6235CD7237E81EFD623C100275043
S1138230BD828D7E81EFC601D7249611810127AFBF
S113824018CE0050CE003096108101272A810227D3
S1138250228103271A810427037E81EFE600C131BE
S1138260250D864D18A70018085AC13026F408BDFC
S113827082E308BD836E08BD83EA7E853F7E81EF7D
S1138280CE005018CE303DBD82D27E81EFCE00307C
S113829018CE00507F00247F00237F31DE7F001042
S11382A07F0011C60018E7001808188C00C026F3D8
S11382B018CE0030C60018E7001808188C004026B5
S11382C0F33981302507813A2203C60139C6047E79
S11382D082CCC601D71118E600E700081808C12EA1
S11382E026F4393CA6008030810127228102272709
S11382F08103272C81042731810527368106273BFA
S113830081072740810827458109274A3839CE311A
S1138310A4BD835F7E830CCE31A6BD835F7E830CB8
S1138320CE31A9BD835F7E830CCE31ADBD835F7E2C
S1138330830CCE31B0BD835F7E830CCE31B2BD835E
S11383405F7E830CCE31B5BD835F7E830CCE31B9A5
S1138350BD835F7E830CCE31BEBD835F7E830CE61E
S11383600018E700081808C12026F41809393CA6AB
S113837000803081012722810227278103272C8155
S1138380042731810527368106273B810727408151
S11383900827458109274A3839CE31C1BD835F7E1C
S11383A08397CE31C3BD835F7E8397CE31C6BD83B1
S11383B05F7E8397CE31CABD835F7E8397CE31CDF6
S11383C0BD835F7E8397CE31CFBD835F7E8397CE9F
S11383D031D2BD835F7E8397CE31D6BD835F7E83EA
S11383E097CE31DBBD835F7E83973CA600803081CE
S11383F0012722810227278103272C810427318129
S11384000527368106273B810727408108274581B8
S113841009274A3839CE31DEBD835F7E8413CE31DD
S1138420E0BD835F7E8413CE31E3BD835F7E84131E
S1138430CE31E7BD835F7E8413CE31EABD835F7E98
S11384408413CE31ECBD835F7E8413CE31EFBD83C4
S11384505F7E8413CE31F3BD835F7E8413CE31F807
S1138460BD835F7E8413CC302CB7102BF7102D8680
S113847000B7102C86FEB710098604B7103C86009E
S11384800639D6025CD702CE005018CE300018E66A
S113849000E700081808C12E26F439BD84827E84C2
S11384A0D1D617C10026F4814D2706D618C100265F
S11384B0EAD619C10026E481432706D620C1002646
S11384C0DAD621C10026D481582706D622C1002637
S11384D0CA397F00167F00177F00187F00197F00BC
S11384E0207F00217F00227F00107F00247F000274
S11384F07F00537F00527F00517F00507F0012CED7
S1138500005018CE0030C60018E7001808188C0078
S1138510C026F318CE0030C60018E7001808188CDF
S1138520004026F33918CE00307E854918CE00501D
S113853018A6007E855C7E88FF7E86C97E85EDD682
S113854024C10127E0C10227E3CE0070D610D7A0D2
S1138550C10127E2C10227E1C10327E0CE00701860
S1138560E600183CC1302724C1312727C132272D0A
S1138570C1332733C1342739C135273FC136274595
S1138580C137274BC1382751C13927571838180824
S11385907E85ED18CE31A0BD89887E858C18CE30BD
S11385A05FBD89887E859318CE3063BD89887E85BA
S11385B09318CE3068BD89887E859318CE306FBD00
S11385C089887E859318CE3075BD89887E859318F9
S11385D0CE307ABD89887E859318CE3080BD898857
S11385E07E859318CE3085BD89887E859318E600F4
S11385F0183CC130271EC1312721C1322763C13342
S1138600276AC1342771C13527787E868C18CE310C
S113861075BD8988183818087E86C918381808184E
S1138620E600C13026211809183C18381808180823
S113863018E600C130261718091809183C18CE315D
S113864069BD89887E86141809183C7E86571809E6
S11386501809183C7E865718CE316EBD89887E86EF
S11386601418CE305FBD8988097E860D18CE30631C
S1138670BD8988097E860D18CE3068BD8988097E3B
S1138680860D18CE317DBD89887E8614C136270FAC
S1138690C1372716C138271CC13927237E860D18F8
S11386A0CE3075BD8988097E860D18CE3188BD8986
S11386B0887E861418CE3080BD8988097E860D1880
S11386C0CE3194BD89887E861418E600183CC130EA
S11386D0270BC1312711C132270A7E87FD183818AC
S11386E0087E88FF7E87651838180818E600180980
S11386F0183CC130271EC1312724C132272AC13377
S11387002730C1342736C135273CC136274D7E87F3
S1138710507E898518CE3091BD89887E898518CE92
S11387203096BD89887E898518CE309BBD89887E28
S1138730898518CE30A0BD89887E898518CE30A65B
S1138740BD89887E898518CE30B8BD89887E8985A3
S113875018CE308BBD8988097E86DD18CE30AEBD3B
S113876089887E89851838180818E600183CC130B5
S11387702727C131272DC1322733C1332739C134CB
S1138780273FC1352745C136274BC1372751C1384B
S11387902757C139275D7E898518CE30BFBD8988AA
S11387A07E898518CE30C6BD89887E898518CE30ED
S11387B0D0BD89887E898518CE30DABD89887E89C6
S11387C08518CE30E5BD89887E898518CE30F2BD06
S11387D089887E898518CE30FEBD89887E89851872
S11387E0CE3109BD89887E898518CE3115BD898829
S11387F07E898518CE3120BD89887E8985C133273D
S11388000FC134272BC1352747C13627637E889093
S113881018CE312EBD89881838180818E6001809B2
S1138820183CC130270718CE312CBD89887E86DDDF
S113883018CE3136BD89881838180818E60018098A
S1138840183CC130270718CE312CBD89887E86DDBF
S113885018CE313FBD89881838180818E600180961
S1138860183CC130270718CE312CBD89887E86DD9F
S113887018CE3149BD89881838180818E600180937
S1138880183CC130270718CE312CBD89887E86DD7F
S1138890C137270BC1382727C13927437E86DD1806
S11388A0CE3151BD89881838180818E600180918FF
S11388B03CC130270718CE312CBD89887E86DD184F
S11388C0CE3159BD89881838180818E600180918D7
S11388D03CC130270718CE312CBD89887E86DD182F
S11388E0CE3161BD89881838180818E600180918AF
S11388F03CC130270718CE312CBD89887E86DD180F
S1138900E600183CC1312723C1322729C133272F60
S1138910C1342735C135273BC1362741C1372747E5
S1138920C138274DC13927537E898518CE305ABDA9
S113893089887E898518CE305FBD89887E898518AF
S1138940CE3063BD89887E898518CE3068BD89881C
S11389507E898518CE306FBD89887E898518CE3092
S113896075BD89887E898518CE307ABD89887E89CF
S11389708518CE3080BD89887E898518CE3085BD26
S113898089887E89857E81DA18E600E70008180860
S10A8990C12026F418093987
S10CF100B6102EB6102F97003B47
S105FFD6F10034
S105FFFE80007D
S9030000FC
