S11330004552524F522C204E554D45524F20524F4F
S11330104D414E4F20494E56414C49444F2E455246
S1133020524F522C204E554D45524F204152414251
S113303049474F20494E56414C49444F2E45525220
S11330404F522C204E554D45524F20465545524126
S11330502044452052414E474F2E756E6F20206408
S11330606F7320747265732063756174726F20636B
S1133070696E636F20736569732073696574652075
S11330806F63686F206E7565766520646965636932
S1133090206469657A206F6E636520646F636520C0
S11330A07472656365206361746F72636520717502
S11330B0696E636520646965636973456973206437
S11330C06965636973696574652064696563696FBB
S11330D063686F2064696563696E756576652076DB
S11330E065696E7465207665696E7469756E6F20A6
S11330F07665696E7469644F737665696E74697414
S11331007245737665696E746963756174726F2054
S11331107665696E746963696E636F207665696E3E
S1133120746973456973207665696E74697369653A
S11331307465207665696E74696F63686F2076655F
S1133140696E74696E756576652079207472656937
S11331506E74612063756172656E74612063696E5B
S11331606375656E746120736573656E7461207335
S11331706574656E7461206F6368656E7461206E3A
S11331806F76656E7461206369656E206369656E30
S1133190746F206369656E746F73207175696E69ED
S11331A0656E746F7320736574656369656E746F9F
S11331B073206E6F76656369656E746F73206D69D5
S11331C06C20432043432043434320434420442072
S11331D0444320444343204443434320434D205825
S11331E02058582058585820584C204C204C5820CF
S11331F04C5858204C585858205843204920494985
S113320020494949204956205620564920564949C3
S10C32102056494949204958207F
S11380008E00FFBD8469BD84D5BD828D7E81EF86DF
S11380103F97009600813F27FAD610C100260B81B6
S11380204D270D8144273A7E808FBD84857E81DA79
S1138030D618C1002619D616C10822EEBD84A4A7FD
S11380400008D6165CD716D6505CD7507E800FC178
S11380500122D7CB05D718C609D751A700087E80BF
S11380600FBD84B4D6175CD717C10227BDA700087B
S1138070D618C1002607C605D7517E800FC101223C
S11380804ECB05D718C604D751A700087E800F81B0
S1138090432707814C273E7E8103D620C100261D3D
S11380A0D618C1042229BD84B4D6185CD718C104DB
S11380B0271DA70008D6515CD7517E800FC101222D
S11380C00ECB05D720C609D752A700087E800FBD66
S11380D084857E81DAD620C1002616BD84C4D619D3
S11380E05CD719C10227E8A70008C605D7527E80CD
S11380F00FC10122DACB05D720C604D752A7000846
S11381007E800F8158270B81562742814927787E2C
S11381108178BD84C4D622C1002620D6205CD72015
S1138120C10322ABD621C10026A5A70008D6525C04
S1138130D7527E800FBD84857E81DAC1012290CB27
S113814006D722C609D753A700087E800FD622C1BE
S1138150002613D6215CD721C10227D9A70008C65F
S113816005D7537E800FC10122CBCB06D722C6048C
S1138170D753A700087E800F814F271F814B2723E9
S1138180813D27347E81B5D6225CD722C10322A546
S1138190A70008D6535CD7537E800FD6235CD72321
S11381A07E81DAD623C10026037E81EFBD84D5BD4E
S11381B0828D7E81EF7E802AD602C10127F7C630E8
S11381C096501B975096511B975196521B97529657
S11381D0531B97537E85427E81DA863F9700960033
S11381E0813F27FA814F27B3814B27B77E81DA86F7
S11381F03F97009600813F27FA813D2739814F2719
S113820021814B2725BD82C5C101260FD610C1038C
S1138210226E5CD710A700087E81EFC602D7247EA9
S11382208019D6235CD7237E81EFD623C100275043
S1138230BD828D7E81EFC601D7249611810127AFBF
S113824018CE0050CE003096108101272A810227D3
S1138250228103271A810427037E81EFE600C131BE
S1138260250D864D18A70018085AC13026F408BDFC
S113827082E608BD837108BD83ED7E85427E81EF71
S1138280CE005018CE303DBD82D57E81EFCE003079
S113829018CE00507F00247F00237F31FC7F000331
S11382A07F00107F0011C60018E7001808188C0022
S11382B0C026F318CE0030C60018E7001808188C42
S11382C0004026F33981302507813A2203C601395B
S11382D0C6047E82CFC601D71118E600E70008184D
S11382E008C12E26F4393CA6008030810127228162
S11382F00227278103272C81042731810527368112
S113830006273B81072740810827458109274A38EA
S113831039CE31C2BD83627E830FCE31C4BD836248
S11383207E830FCE31C7BD83627E830FCE31CBBD3A
S113833083627E830FCE31CEBD83627E830FCE31C6
S1138340D0BD83627E830FCE31D3BD83627E830F23
S1138350CE31D7BD83627E830FCE31DCBD83627E96
S1138360830FE60018E700081808C12026F418094E
S1138370393CA6008030810127228102272781030E
S1138380272C81042731810527368106273B810765
S11383902740810827458109274A3839CE31DFBD76
S11383A083627E839ACE31E1BD83627E839ACE312D
S11383B0E4BD83627E839ACE31E8BD83627E839A74
S11383C0CE31EBBD83627E839ACE31EDBD83627E76
S11383D0839ACE31F0BD83627E839ACE31F4BD831D
S11383E0627E839ACE31F9BD83627E839A3CA60075
S11383F0803081012722810227278103272C8104D1
S11384002731810527368106273B810727408108CC
S113841027458109274A3839CE31FCBD83627E84E1
S113842016CE31FEBD83627E8416CE3201BD8362D8
S11384307E8416CE3205BD83627E8416CE3208BD9C
S113844083627E8416CE320ABD83627E8416CE3267
S11384500DBD83627E8416CE3211BD83627E841686
S1138460CE3216BD83627E8416CC302CB7102BF727
S1138470102D8600B7102C86FEB710098604B7109D
S11384803C86000639D6025CD702CE005018CE30A6
S11384900018E600E700081808C12E26F439BD8448
S11384A0857E84D4D617C10026F4814D2706D618BC
S11384B0C10026EAD619C10026E481432706D62046
S11384C0C10026DAD621C10026D481582706D62237
S11384D0C10026CA397F00167F00177F00187F006D
S11384E0197F00207F00217F00227F00107F00245D
S11384F07F00027F00537F00527F00517F00507F36
S11385000012CE005018CE0030C60018E70018083C
S1138510188C00C026F318CE0030C60018E70018E7
S113852008188C004026F33918CE00307E854C188C
S1138530CE005018A6007E855F7E88F17E86CC7EB4
S113854085F0D624C10127E0C10227E3CE0070D60E
S113855010D7A0C10127E2C10227E1C10327E0CE61
S1138560007018E600183CC1302724C1312727C108
S113857032272DC1332733C1342739C135273FC1B1
S1138580362745C137274BC1382751C139275718DA
S11385903818087E85F018CE31BEBD897A7E858F65
S11385A018CE305FBD897A7E859618CE3063BD893A
S11385B07A7E859618CE3068BD897A7E859618CEE7
S11385C0306FBD897A7E859618CE3075BD897A7EE6
S11385D0859618CE307ABD897A7E859618CE3080FD
S11385E0BD897A7E859618CE3085BD897A7E85963A
S11385F018E600183CC130271EC1312721C132279B
S113860063C133276AC1342771C13527787E868FC9
S113861018CE3193BD897A183818087E86CC18385C
S1138620180818E600C13026211809183C18381813
S113863008180818E600C130261718091809183C4C
S113864018CE3187BD897A7E86171809183C7E8634
S11386505A18091809183C7E865A18CE318CBD89DF
S11386607A7E861718CE305FBD897A097E86101807
S1138670CE3063BD897A097E861018CE3068BD89F4
S11386807A097E861018CE319BBD897A7E8617C101
S113869036270FC1372716C138271CC13927237E37
S11386A0861018CE3075BD897A097E861018CE31B1
S11386B0A6BD897A7E861718CE3080BD897A097E58
S11386C0861018CE31B2BD897A7E861718E6001856
S11386D03CC130270BC131270EC132277A7E87EF88
S11386E0183818087E88F11838180818E600180990
S11386F0183CC130271AC1312720C1322726C13383
S1138700272CC1342732C13527387E874C7E8977A0
S113871018CE3091BD897A7E897718CE3096BD897E
S11387207A7E897718CE309BBD897A7E897718CE78
S113873030A0BD897A7E897718CE30A6BD897A7E2D
S1138740897718CE30AEBD897A7E897718CE308B82
S1138750BD897A097E86E01838180818E600183CA6
S1138760C1302727C131272DC1322733C1332739DF
S1138770C134273FC1352745C136274BC13727515F
S1138780C1382757C139275D7E897718CE30DFBDC0
S1138790897A7E897718CE30E6BD897A7E89771802
S11387A0CE30F0BD897A7E897718CE30F9BD897ACA
S11387B07E897718CE3103BD897A7E897718CE31C8
S11387C010BD897A7E897718CE311CBD897A7E895D
S11387D07718CE3127BD897A7E897718CE3133BD9B
S11387E0897A7E897718CE313EBD897A7E8977C1B0
S11387F033270FC134272BC1352747C13627637E62
S1138800888218CE314CBD897A1838180818E600C9
S11388101809183CC130270718CE314ABD897A7E21
S113882086E018CE3154BD897A1838180818E60045
S11388301809183CC130270718CE314ABD897A7E01
S113884086E018CE315DBD897A1838180818E6001C
S11388501809183CC130270718CE314ABD897A7EE1
S113886086E018CE3167BD897A1838180818E600F2
S11388701809183CC130270718CE314ABD897A7EC1
S113888086E0C137270BC1382727C13927437E86A5
S1138890E018CE316FBD897A1838180818E6001828
S11388A009183CC130270718CE314ABD897A7E8623
S11388B0E018CE3177BD897A1838180818E6001800
S11388C009183CC130270718CE314ABD897A7E8603
S11388D0E018CE317FBD897A1838180818E60018D8
S11388E009183CC130270718CE314ABD897A7E86E3
S11388F0E018E600183CC1312723C1322729C133CF
S1138900272FC1342735C135273BC1362741C1370D
S11389102747C138274DC13927537E897718CE3070
S11389205ABD897A7E897718CE305FBD897A7E896F
S11389307718CE3063BD897A7E897718CE3068BDCA
S1138940897A7E897718CE306FBD897A7E897718C7
S1138950CE3075BD897A7E897718CE307ABD897A12
S11389607E897718CE3080BD897A7E897718CE309B
S113897085BD897A7E89777E81EF18E600E7000855
S10C89801808C12026F418093975
S10CF100B6102EB6102F97003B47
S105FFD6F10034
S105FFFE80007D
S9030000FC
